:100000000C9462000C948A000C948A000C948A0070
:100010000C948A000C948A000C948A000C948A0038
:100020000C948A000C948A000C948A000C948A0028
:100030000C948A000C948A000C948A000C948A0018
:100040000C94F5020C948A000C948A000C948A009B
:100050000C948A000C948A000C948A000C948A00F8
:100060000C948A000C948A000000000024002700F1
:100070002A0000000000250028002B0000000008D6
:10008000000201000003040700000000000000005F
:1000900000000000230026002900040404040404D6
:1000A0000404020202020202030303030303010227
:1000B00004081020408001020408102001020408F6
:1000C0001020880411241FBECFEFD8E0DEBFCDBFC3
:1000D00011E0A0E0B1E0E2E0FCE002C005900D928A
:1000E000AC31B107D9F721E0ACE1B1E001C01D921C
:1000F000AF33B207E1F710E0C2E6D0E004C02197C9
:10010000FE010E94F905C136D107C9F70E94840398
:100110000C94FF050C940000AF92BF92CF92DF9237
:10012000EF92FF920F931F93CF93DF936C017B01AC
:100130008B01040F151FEB015E01AE18BF08C0173D
:10014000D10759F06991D601ED91FC910190F081B0
:10015000E02DC6010995892B79F7C501DF91CF9173
:100160001F910F91FF90EF90DF90CF90BF90AF90D5
:10017000089590E0FC01E458FF4F2491FC01E25502
:10018000FF4F3491FC01E656FF4FE491EE23C9F096
:10019000222339F0233001F1A8F4213019F1223063
:1001A00029F1F0E0EE0FFF1FEE58FF4FA591B4913B
:1001B0008FB7F894EC91611126C030953E233C93A3
:1001C0008FBF08952730A9F02830C9F0243049F7AF
:1001D000809180008F7D03C0809180008F77809315
:1001E0008000DFCF84B58F7784BDDBCF84B58F7D72
:1001F000FBCF8091B0008F778093B000D2CF8091F9
:10020000B0008F7DF9CF3E2BDACFCF93DF9390E014
:10021000FC01E255FF4F249186569F4FFC018491CB
:100220008823D1F090E0880F991FFC01E859FF4F17
:10023000A591B491FC01EE58FF4FC591D491611185
:100240000EC09FB7F8948C91E22FE0958E238C938B
:100250002881E223E8839FBFDF91CF9108958FB774
:10026000F894EC91E22BEC938FBFF6CF3FB7F89464
:100270008091210190912201A0912301B09124014C
:1002800026B5A89B05C02F3F19F00196A11DB11DF1
:100290003FBFBA2FA92F982F8827BC01CD01620F2D
:1002A000711D811D911D42E0660F771F881F991FE8
:1002B0004A95D1F70895089590E080E008958F92CF
:1002C0009F92AF92BF920F931F93CF93DF93CDB7BF
:1002D000DEB7A1970FB6F894DEBF0FBECDBF19A24F
:1002E000423008F44AE08E010F5D1F4F842E912C9E
:1002F000B12CA12CA50194010E94D705E62FB901CC
:10030000CA01EA3044F5E05DD801EE938D01232B5C
:10031000242B252B79F790E080E0109769F0FD0100
:1003200001900020E9F73197AF014A1B5B0BBD013B
:1003300087E291E00E948C00A1960FB6F894DEBF90
:100340000FBECDBFDF91CF911F910F91BF90AF90A6
:100350009F908F900895E95CD7CFCF93DF93EC0106
:1003600060E08E810E94B90061E08E810E94B90038
:1003700060E08E810E94B9008BE891E00197F1F76F
:10038000DF91CF910895CF92DF92EF92FF920F937A
:100390001F93CF93DF936C017C0187E0E80EF11C83
:1003A000D0E0C0E0062F10E0B8010C2E02C0759519
:1003B00067950A94E2F76170F70181917F010E94CD
:1003C000B9002196C430D10579F7C601DF91CF91EC
:1003D0001F910F91FF90EF90DF90CF900C94AD01A3
:1003E000CF92DF92EF92FF920F931F93CF93DF9301
:1003F000EC01F62E642F8C810E94B9008D818F3F15
:1004000019F060E00E94B9000F2D10E08F8584FF85
:1004100025C06E0187E0C80ED11CF12CE12CB8017B
:100420000E2C02C0759567950A94E2F76170F6018B
:1004300081916F010E94B900FFEFEF1AFF0A88E077
:10044000E816F10461F7CE01DF91CF911F910F9172
:10045000FF90EF90DF90CF900C94AD01B80184E055
:10046000759567958A95E1F7CE010E94C3016F2DBE
:10047000CE01DF91CF911F910F91FF90EF90DF9010
:10048000CF900C94C30140E0682F87E291E00C9478
:10049000F001CF93DF93823029F490913601986078
:1004A0009093360180933A0110923B0180E480934F
:1004B0003C0180E180933D0180E580933E0161E055
:1004C00080912B010E94050180912C018F3F19F032
:1004D00061E00E94050161E080912D010E9405010B
:1004E000C7E2D1E09E01275231408091360184FD60
:1004F0000BC084E090E021962817390744F461E0AE
:100500008E810E940501EECF88E090E0F4CF8BE36E
:100510009DE00197F1F760E080912B010E94B90006
:1005200060E080912D010E94B90080912C018F3FE5
:1005300019F060E00E94B9008091360184FD39C055
:1005400063E087E291E00E94C301CBE4D6E4CE01F0
:100550000197F1F763E087E291E00E94C3012197E0
:10056000F1F763E087E291E00E94C30183E592E046
:100570000197F1F762E087E291E00E94C301809168
:10058000360180620E94430284E0809337018CE050
:100590000E94430281E00E9443028BE39FE10197A6
:1005A000F1F782E08093380186E0DF91CF910C94DF
:1005B000430280620E9443028BE496E40197F1F7C4
:1005C0008091360180620E94430283E592E00197A8
:1005D000F1F78091360180620E944302D0CF41E062
:1005E0000E94F00181E090E008951F920F920FB6F3
:1005F0000F9211242F933F938F939F93AF93BF93A9
:1006000080911D0190911E01A0911F01B0912001C8
:1006100030911C0123E0230F2D3758F50196A11DC1
:10062000B11D20931C0180931D0190931E01A09386
:100630001F01B09320018091210190912201A0918E
:100640002301B09124010196A11DB11D80932101C8
:1006500090932201A0932301B0932401BF91AF9105
:100660009F918F913F912F910F900FBE0F901F90F0
:10067000189526E8230F0296A11DB11DD2CFCF9267
:10068000DF92EF92FF920F931F93E82FF92F05C08F
:10069000015011092109310961F1908196239417C4
:1006A000B9F305C0015011092109310911F19081F7
:1006B00096239413F7CFC12CD12CE12CF12C0AC036
:1006C0008FEFC81AD80AE80AF80A0C151D052E057E
:1006D0003F0579F080818623841791F36C2D7D2D61
:1006E0008E2D9F2D1F910F91FF90EF90DF90CF9057
:1006F000089560E070E080E090E01F910F91FF901E
:10070000EF90DF90CF900895789484B5826084BD97
:1007100084B5816084BD85B5826085BD85B5816005
:1007200085BD80916E00816080936E001092810083
:10073000809181008260809381008091810081603E
:1007400080938100809180008160809380008091FF
:10075000B10084608093B1008091B000816080938B
:10076000B00080917A00846080937A0080917A0052
:10077000826080937A0080917A00816080937A0011
:1007800080917A00806880937A001092C10082E0A4
:100790000E94490261E08CE00E94050160E08DE06A
:1007A0000E940501C3E0D0E023E2A22EB12C37EA7B
:1007B000232E30E0332E40E0842E40E0942E60E083
:1007C0008CE00E94B900CE010197F1F761E08CE066
:1007D0000E94B900C5010197F1F760E08CE00E942A
:1007E000B900EBEBF0E06491F1018491E82FF0E0C7
:1007F000EE0FFF1FE057FF4F8591949100E412E444
:100800002FE030E0462F0E943F03611571058105FE
:10081000910529F06F5F7F4F8F4F9F4F9F700E9410
:10082000DE0426E933E44BE05DE30E94420520E06C
:1008300030E040E05FE30E9442050E94A60470930E
:10084000260160932501E1E080913A018111E0E009
:10085000E195F0E0E95DFE4F848980680E944302E3
:100860004AE050E06CE071E087E291E00E948C0089
:10087000C0902501D09026010D2C000CEE08FF0839
:100880004AE0C701B601F7FE0EC041E06DE287E223
:1008900091E00E94F00166277727CB016C197D0952
:1008A0008E099F094AE00E945F0143E050E067E142
:1008B00071E087E291E00E948C000E9436012B01DA
:1008C0003C018AE0C82ED12CE12CF12C0E9436018B
:1008D0006419750986099709683E73408105910579
:1008E000A8F3F1E0CF1AD108E108F10828EE420E92
:1008F00023E0521E611C711CC114D104E104F104F7
:1009000029F78114910409F45ACF0E94000057CFAF
:10091000E7E2F1E01382128284E091E09183808328
:1009200081E084838FEF858382E0868384E0878300
:1009300085E0808786E0818787E08287138614863A
:1009400015861686178681E00C9449020E94AD0434
:100950006894B1110C943C0508950E94210588F01B
:100960009F5798F0B92F9927B751B0F0E1F0660F73
:10097000771F881F991F1AF0BA95C9F714C0B130B4
:1009800091F00E943B05B1E008950C943B05672F60
:10099000782F8827B85F39F0B93FCCF386957795E3
:1009A0006795B395D9F73EF49095809570956195CC
:1009B0007F4F8F4F9F4F0895E89409C097FB3EF4F7
:1009C00090958095709561957F4F8F4F9F4F99239C
:1009D000A9F0F92F96E9BB279395F695879577951A
:1009E0006795B795F111F8CFFAF4BB0F11F460FFDA
:1009F0001BC06F5F7F4F8F4F9F4F16C0882311F032
:100A000096E911C0772321F09EE8872F762F05C045
:100A1000662371F096E8862F70E060E02AF09A95E0
:100A2000660F771F881FDAF7880F9695879597F9D5
:100A3000089557FD9058440F551F59F05F3F71F0CE
:100A40004795880F97FB991F61F09F3F79F0879535
:100A50000895121613061406551FF2CF4695F1DFBE
:100A600008C0161617061806991FF1CF869571054E
:100A7000610508940895E894BB2766277727CB0182
:100A800097F908950E9455050C94C6050E94B80573
:100A900038F00E94BF0520F0952311F00C94AF05AB
:100AA0000C94B50511240C943C050E94190570F3B3
:100AB000959FC1F3950F50E0551F629FF001729F03
:100AC000BB27F00DB11D639FAA27F00DB11DAA1F12
:100AD000649F6627B00DA11D661F829F2227B00D5F
:100AE000A11D621F739FB00DA11D621F839FA00DEA
:100AF000611D221F749F3327A00D611D231F849F3A
:100B0000600D211D822F762F6A2F11249F57504090
:100B10009AF0F1F088234AF0EE0FFF1FBB1F661F0B
:100B2000771F881F91505040A9F79E3F510580F0D4
:100B30000C94AF050C943C055F3FE4F3983ED4F36E
:100B4000869577956795B795F795E7959F5FC1F778
:100B5000FE2B880F911D9695879597F9089597F923
:100B60009F6780E870E060E008959FEF80EC089553
:100B700000240A941616170618060906089500247C
:100B80000A9412161306140605060895092E0394F6
:100B9000000C11F4882352F0BB0F40F4BF2B11F46A
:100BA00060FF04C06F5F7F4F8F4F9F4F0895A1E29A
:100BB0001A2EAA1BBB1BFD010DC0AA1FBB1FEE1FD7
:100BC000FF1FA217B307E407F50720F0A21BB30B22
:100BD000E40BF50B661F771F881F991F1A9469F79E
:100BE00060957095809590959B01AC01BD01CF01FA
:100BF0000895EE0FFF1F0590F491E02D0994F894ED
:020C0000FFCF24
:100C020000000000EF028C005C015B014469737418
:0C0C1200616E63653A200020636D0000F5
:107E0000112484B714BE81FFF0D085E080938100F7
:107E100082E08093C00088E18093C10086E0809377
:107E2000C20080E18093C4008EE0C9D0259A86E02C
:107E300020E33CEF91E0309385002093840096BBD3
:107E4000B09BFECF1D9AA8958150A9F7CC24DD24C4
:107E500088248394B5E0AB2EA1E19A2EF3E0BF2EE7
:107E6000A2D0813461F49FD0082FAFD0023811F036
:107E7000013811F484E001C083E08DD089C08234E0
:107E800011F484E103C0853419F485E0A6D080C0E4
:107E9000853579F488D0E82EFF2485D0082F10E0AE
:107EA000102F00270E291F29000F111F8ED06801E7
:107EB0006FC0863521F484E090D080E0DECF843638
:107EC00009F040C070D06FD0082F6DD080E0C81688
:107ED00080E7D80618F4F601B7BEE895C0E0D1E017
:107EE00062D089930C17E1F7F0E0CF16F0E7DF06D8
:107EF00018F0F601B7BEE89568D007B600FCFDCFD4
:107F0000A601A0E0B1E02C9130E011968C91119780
:107F100090E0982F8827822B932B1296FA010C0160
:107F200087BEE89511244E5F5F4FF1E0A038BF0790
:107F300051F7F601A7BEE89507B600FCFDCF97BE46
:107F4000E89526C08437B1F42ED02DD0F82E2BD052
:107F50003CD0F601EF2C8F010F5F1F4F84911BD097
:107F6000EA94F801C1F70894C11CD11CFA94CF0C13
:107F7000D11C0EC0853739F428D08EE10CD085E9AC
:107F80000AD08FE07ACF813511F488E018D01DD067
:107F900080E101D065CF982F8091C00085FFFCCF94
:107FA0009093C60008958091C00087FFFCCF809118
:107FB000C00084FD01C0A8958091C6000895E0E648
:107FC000F0E098E1908380830895EDDF803219F02E
:107FD00088E0F5DFFFCF84E1DECF1F93182FE3DFCA
:107FE0001150E9F7F2DF1F91089580E0E8DFEE27F6
:047FF000FF270994CA
:027FFE00040479
:0400000300007E007B
:00000001FF
