:100000000C9462000C948A000C948A000C948A0070
:100010000C948A000C948A000C948A000C948A0038
:100020000C948A000C948A000C948A000C948A0028
:100030000C948A000C948A000C948A000C948A0018
:100040000C9439020C948A000C9407020C94E10180
:100050000C948A000C948A000C948A000C948A00F8
:100060000C948A000C948A000000000024002700F1
:100070002A000000000023002600290000000000E4
:10008000250028002B0004040404040404040202D4
:100090000202020203030303030301020408102007
:1000A0004080010204081020010204081020000012
:1000B0000008000201000003040700000000000027
:1000C00000002E0411241FBECFEFD8E0DEBFCDBF4D
:1000D00011E0A0E0B1E0ECE6FBE002C005900D927B
:1000E000A631B107D9F721E0A6E1B1E001C01D9228
:1000F000AC3BB207E1F710E0C2E6D0E004C02197C4
:10010000FE010E94AE05C136D107C9F70E94C802A0
:100110000C94B4050C940000EAEBF0E02491E6EABC
:10012000F0E09491E2E9F0E0E491EE23C9F02223BB
:1001300039F0233001F1A8F4213019F1223029F1EE
:10014000F0E0EE0FFF1FE458FF4FA591B4912FB7D9
:10015000F894EC91811126C090959E239C932FBF1B
:1001600008952730A9F02830C9F0243049F72091AC
:1001700080002F7D03C0209180002F772093800086
:10018000DFCF24B52F7724BDDBCF24B52F7DFBCF68
:100190002091B0002F772093B000D2CF2091B000F3
:1001A0002F7DF9CF9E2BDACFAF92BF92CF92DF9205
:1001B000EF92FF920F931F93CF93DF936C017B011C
:1001C0008B01040F151FEB015E01AE18BF08C017AD
:1001D000D10759F06991D601ED91FC910190F08120
:1001E000E02DC6010995892B79F7C501DF91CF91E3
:1001F0001F910F91FF90EF90DF90CF90BF90AF9045
:100200000895FC01538D448D252F30E0842F90E01C
:10021000821B930B541710F0CF9608950197089501
:10022000FC01918D828D981761F0A28DAE0FBF2FCA
:10023000B11D5D968C91928D9F5F9F73928F90E020
:1002400008958FEF9FEF0895FC01918D828D98178F
:1002500031F0828DE80FF11D858D90E008958FEFCC
:100260009FEF0895FC01918D228D892F90E0805C95
:100270009F4F821B91098F73992708958FE191E019
:100280000E94320121E0892B09F420E0822F089599
:1002900080E090E0892B29F00E943E0181110C94AE
:1002A00000000895FC01A48DA80FB92FB11DA35A19
:1002B000BF4F2C91848D90E001968F739927848F86
:1002C000A689B7892C93A089B1898C9183708064A9
:1002D0008C93938D848D981306C00288F389E02D4A
:1002E00080818F7D80830895EF92FF920F931F93FB
:1002F000CF93DF93EC0181E0888F9B8D8C8D9813D9
:100300001AC0E889F989808185FF15C09FB7F894E4
:10031000EE89FF896083E889F98980818370806430
:1003200080839FBF81E090E0DF91CF911F910F917B
:10033000FF90EF900895F62E0B8D10E00F5F1F4F8A
:100340000F731127E02E8C8D8E110CC00FB607FC99
:10035000FACFE889F989808185FFF5CFCE010E9427
:100360005201F1CFEB8DEC0FFD2FF11DE35AFF4F42
:10037000F0829FB7F8940B8FEA89FB8980818062B5
:10038000CFCFCF93DF93EC01888D8823B9F0AA8972
:10039000BB89E889F9898C9185FD03C0808186FD40
:1003A0000DC00FB607FCF7CF8C9185FFF2CF80818F
:1003B00085FFEDCFCE010E945201E9CFDF91CF91B1
:1003C00008951F920F920FB60F9211242F933F930F
:1003D0004F935F936F937F938F939F93AF93BF934D
:1003E000EF93FF938FE191E00E945201FF91EF9113
:1003F000BF91AF919F918F917F916F915F914F913D
:100400003F912F910F900FBE0F901F9018951F9244
:100410000F920FB60F9211242F938F939F93EF9308
:10042000FF93E0912F01F09130018081E09135013F
:10043000F091360182FD1BC09081809138018F5F61
:100440008F7320913901821741F0E0913801F0E07B
:10045000E15EFE4F958F80933801FF91EF919F9160
:100460008F912F910F900FBE0F901F901895808144
:10047000F4CF1F920F920FB60F9211242F933F9338
:100480008F939F93AF93BF9380911B0190911C0119
:10049000A0911D01B0911E0130911A0123E0230F9C
:1004A0002D3758F50196A11DB11D20931A01809397
:1004B0001B0190931C01A0931D01B0931E0180911C
:1004C000160190911701A0911801B09119010196A0
:1004D000A11DB11D8093160190931701A0931801DF
:1004E000B0931901BF91AF919F918F913F912F913F
:1004F0000F900FBE0F901F90189526E8230F0296BD
:10050000A11DB11DD2CFCF92DF92EF92FF920F9338
:100510001F93E82FF92F05C0015011092109310956
:1005200061F1908196239417B9F305C00150110928
:100530002109310911F1908196239413F7CFC12C31
:10054000D12CE12CF12C0AC08FEFC81AD80AE80A86
:10055000F80A0C151D052E053F0579F080818623CC
:10056000841791F36C2D7D2D8E2D9F2D1F910F9152
:10057000FF90EF90DF90CF90089560E070E080E012
:1005800090E01F910F91FF90EF90DF90CF90089532
:10059000CF93DF93CDB7DEB7A1970FB6F894DEBF48
:1005A0000FBECDBF789484B5826084BD84B5816070
:1005B00084BD85B5826085BD85B5816085BD80912E
:1005C0006E00816080936E001092810080918100A6
:1005D000826080938100809181008160809381009E
:1005E000809180008160809380008091B100846060
:1005F0008093B1008091B00081608093B0008091C1
:100600007A00846080937A0080917A00826080937F
:100610007A0080917A00816080937A0080917A00DC
:10062000806880937A001092C100E6EAF0E024919D
:10063000E2E9F0E08491882399F090E0880F991F17
:10064000FC01E859FF4FA591B491FC01E458FF4F1C
:10065000859194918FB7F894EC91E22BEC938FBF36
:1006600047EA842E40E0942EF401249153E9252E8C
:1006700050E0352EF10184918823C9F090E0880F75
:10068000991FFC01E859FF4FA591B491FC01E45872
:10069000FF4F459154913FB7F8949C91822F8095DC
:1006A00098239C93FA019081892380833FBFE09136
:1006B0002F01F091300182E08083E0912B01F091D5
:1006C0002C011082E0912D01F0912E018FEC80839E
:1006D00010923701E0913301F091340186E080837C
:1006E000E0913101F0913201808180618083E0915D
:1006F0003101F0913201808188608083E091310185
:10070000F0913201808180688083E0913101F09125
:10071000320180818F7D80839AE0C92ED12CE12C1B
:10072000F12C20E0A22E20E0B22E81E00E948C006D
:100730008BE99FE00197F1F780E00E948C00F401C3
:100740006491F1018491E82FF0E0EE0FFF1FEE5865
:10075000FF4F8591949100E412E42FE030E0462FA2
:100760000E948302611571058105910529F06F5F73
:100770007F4F8F4F9F4F9F70072E000C880B990B58
:100780000E94930426E933E44BE05DE30E94F70402
:1007900020E030E040E05FE30E94F7040E945B0449
:1007A0002B01770F6608770877FE42C06DE28FE174
:1007B00091E00E94740122273327A90124193509E9
:1007C0004609570919A2CE0181963C01CA01B90117
:1007D000A70196010E948C05605DF30162933F01C1
:1007E000211531054105510589F76114710461F046
:1007F00001900020E9F73197AF0146195709B3017D
:100800008FE191E00E94D40042E050E062E171E0AB
:100810008FE191E00E94D400A114B10409F485CFC6
:100820000E943E01882309F480CF0E9400007DCF02
:10083000A301920119A2CE0181963C01CA01B9011E
:10084000A70196010E948C05605DF30162933F0150
:10085000211531054105510589F7C7CFEFE1F1E0D9
:100860001382128288EE93E0A0E0B0E08483958347
:10087000A683B78384E091E09183808385EC90E048
:100880009587848784EC90E09787868780EC90E05A
:10089000918B808B81EC90E0938B828B82EC90E04B
:1008A000958B848B86EC90E0978B868B118E128EC5
:1008B000138E148E08950E9462046894B1110C94F2
:1008C000F10408950E94D60488F09F5798F0B92F3C
:1008D0009927B751B0F0E1F0660F771F881F991F75
:1008E0001AF0BA95C9F714C0B13091F00E94F00423
:1008F000B1E008950C94F004672F782F8827B85F33
:1009000039F0B93FCCF3869577956795B395D9F7CC
:100910003EF490958095709561957F4F8F4F9F4FD6
:100920000895E89409C097FB3EF4909580957095E2
:1009300061957F4F8F4F9F4F9923A9F0F92F96E92B
:10094000BB279395F695879577956795B795F111A0
:10095000F8CFFAF4BB0F11F460FF1BC06F5F7F4F3D
:100960008F4F9F4F16C0882311F096E911C077234F
:1009700021F09EE8872F762F05C0662371F096E858
:10098000862F70E060E02AF09A95660F771F881F27
:10099000DAF7880F9695879597F9089557FD90583F
:1009A000440F551F59F05F3F71F04795880F97FB33
:1009B000991F61F09F3F79F08795089512161306ED
:1009C0001406551FF2CF4695F1DF08C0161617061C
:1009D0001806991FF1CF8695710561050894089551
:1009E000E894BB2766277727CB0197F908950E94E3
:1009F0000A050C947B050E946D0538F00E94740571
:100A000020F0952311F00C9464050C946A051124D0
:100A10000C94F1040E94CE0470F3959FC1F3950FDE
:100A200050E0551F629FF001729FBB27F00DB11D72
:100A3000639FAA27F00DB11DAA1F649F6627B00D02
:100A4000A11D661F829F2227B00DA11D621F739FEB
:100A5000B00DA11D621F839FA00D611D221F749FF9
:100A60003327A00D611D231F849F600D211D822F40
:100A7000762F6A2F11249F5750409AF0F1F0882367
:100A80004AF0EE0FFF1FBB1F661F771F881F915094
:100A90005040A9F79E3F510580F00C9464050C94DA
:100AA000F1045F3FE4F3983ED4F38695779567951C
:100AB000B795F795E7959F5FC1F7FE2B880F911DBE
:100AC0009695879597F9089597F99F6780E870E064
:100AD00060E008959FEF80EC089500240A941616B4
:100AE000170618060906089500240A94121613061C
:100AF000140605060895092E0394000C11F48823AA
:100B000052F0BB0F40F4BF2B11F460FF04C06F5FC5
:100B10007F4F8F4F9F4F0895A1E21A2EAA1BBB1B38
:100B2000FD010DC0AA1FBB1FEE1FFF1FA217B307B9
:100B3000E407F50720F0A21BB30BE40BF50B661FCF
:100B4000771F881F991F1A9469F760957095809593
:100B500090959B01AC01BD01CF010895EE0FFF1FE1
:0C0B60000590F491E02D0994F894FFCF6B
:100B6C00000000007401D4000101C1013201100128
:060B7C0024010D0A000037
:107E0000112484B714BE81FFF0D085E080938100F7
:107E100082E08093C00088E18093C10086E0809377
:107E2000C20080E18093C4008EE0C9D0259A86E02C
:107E300020E33CEF91E0309385002093840096BBD3
:107E4000B09BFECF1D9AA8958150A9F7CC24DD24C4
:107E500088248394B5E0AB2EA1E19A2EF3E0BF2EE7
:107E6000A2D0813461F49FD0082FAFD0023811F036
:107E7000013811F484E001C083E08DD089C08234E0
:107E800011F484E103C0853419F485E0A6D080C0E4
:107E9000853579F488D0E82EFF2485D0082F10E0AE
:107EA000102F00270E291F29000F111F8ED06801E7
:107EB0006FC0863521F484E090D080E0DECF843638
:107EC00009F040C070D06FD0082F6DD080E0C81688
:107ED00080E7D80618F4F601B7BEE895C0E0D1E017
:107EE00062D089930C17E1F7F0E0CF16F0E7DF06D8
:107EF00018F0F601B7BEE89568D007B600FCFDCFD4
:107F0000A601A0E0B1E02C9130E011968C91119780
:107F100090E0982F8827822B932B1296FA010C0160
:107F200087BEE89511244E5F5F4FF1E0A038BF0790
:107F300051F7F601A7BEE89507B600FCFDCF97BE46
:107F4000E89526C08437B1F42ED02DD0F82E2BD052
:107F50003CD0F601EF2C8F010F5F1F4F84911BD097
:107F6000EA94F801C1F70894C11CD11CFA94CF0C13
:107F7000D11C0EC0853739F428D08EE10CD085E9AC
:107F80000AD08FE07ACF813511F488E018D01DD067
:107F900080E101D065CF982F8091C00085FFFCCF94
:107FA0009093C60008958091C00087FFFCCF809118
:107FB000C00084FD01C0A8958091C6000895E0E648
:107FC000F0E098E1908380830895EDDF803219F02E
:107FD00088E0F5DFFFCF84E1DECF1F93182FE3DFCA
:107FE0001150E9F7F2DF1F91089580E0E8DFEE27F6
:047FF000FF270994CA
:027FFE00040479
:0400000300007E007B
:00000001FF
