:100000000C9462000C948A000C948A000C948A0070
:100010000C948A000C948A000C948A000C948A0038
:100020000C948A000C948A000C948A000C948A0028
:100030000C948A000C948A000C948A000C948A0018
:100040000C9419030C948A000C94E7020C94C102DE
:100050000C948A000C948A000C948A000C948A00F8
:100060000C948A000C948A000000000024002700F1
:100070002A0000000000250028002B0000000008D6
:10008000000201000003040700000000000000005F
:1000900000000000230026002900040404040404D6
:1000A0000404020202020202030303030303010227
:1000B00004081020408001020408102001020408F6
:1000C0001020120511241FBECFEFD8E0DEBFCDBF38
:1000D00011E0A0E0B1E0E4E3FDE002C005900D9284
:1000E000A631B107D9F721E0A6E1B1E001C01D9228
:1000F000A03CB207E1F710E0C2E6D0E004C02197CF
:10010000FE010E949206C136D107C9F70E94A803DA
:100110000C9498060C940000AF92BF92CF92DF929D
:10012000EF92FF920F931F93CF93DF936C017B01AC
:100130008B01040F151FEB015E01AE18BF08C0173D
:10014000D10759F06991D601ED91FC910190F081B0
:10015000E02DC6010995892B79F7C501DF91CF9173
:100160001F910F91FF90EF90DF90CF90BF90AF90D5
:100170000895FC01538D448D252F30E0842F90E0AD
:10018000821B930B541710F0CF9608950197089592
:10019000FC01918D828D981761F0A28DAE0FBF2F5B
:1001A000B11D5D968C91928D9F5F9F73928F90E0B1
:1001B00008958FEF9FEF0895FC01918D828D981720
:1001C00031F0828DE80FF11D858D90E008958FEF5D
:1001D0009FEF0895FC01918D228D892F90E0805C26
:1001E0009F4F821B91098F739927089583E291E0B5
:1001F0000E94EA0021E0892B09F420E0822F089573
:1002000080E090E0892B29F00E94F60081110C9487
:1002100000000895FC01A48DA80FB92FB11DA35AA9
:10022000BF4F2C91848D90E001968F739927848F16
:10023000A689B7892C93A089B1898C918370806439
:100240008C93938D848D981306C00288F389E02DDA
:1002500080818F7D80830895EF92FF920F931F938B
:10026000CF93DF93EC0181E0888F9B8D8C8D981369
:100270001AC0E889F989808185FF15C09FB7F89475
:10028000EE89FF896083E889F989808183708064C1
:1002900080839FBF81E090E0DF91CF911F910F910C
:1002A000FF90EF900895F62E0B8D10E00F5F1F4F1B
:1002B0000F731127E02E8C8D8E110CC00FB607FC2A
:1002C000FACFE889F989808185FFF5CFCE010E94B8
:1002D0000A01F1CFEB8DEC0FFD2FF11DE35AFF4F1B
:1002E000F0829FB7F8940B8FEA89FB898081806246
:1002F000CFCFCF93DF93EC01888D8823B9F0AA8903
:10030000BB89E889F9898C9185FD03C0808186FDD0
:100310000DC00FB607FCF7CF8C9185FFF2CF80811F
:1003200085FFEDCFCE010E940A01E9CFDF91CF9189
:10033000089590E0FC01E458FF4F2491FC01E25540
:10034000FF4F3491FC01E656FF4FE491EE23C9F0D4
:10035000222339F0233001F1A8F4213019F12230A1
:1003600029F1F0E0EE0FFF1FEE58FF4FA591B49179
:100370008FB7F894EC91611126C030953E233C93E1
:100380008FBF08952730A9F02830C9F0243049F7ED
:10039000809180008F7D03C0809180008F77809353
:1003A0008000DFCF84B58F7784BDDBCF84B58F7DB0
:1003B000FBCF8091B0008F778093B000D2CF809137
:1003C000B0008F7DF9CF3E2BDACFCF93DF9390E053
:1003D000FC01E255FF4F249186569F4FFC0184910A
:1003E0008823D1F090E0880F991FFC01E859FF4F56
:1003F000A591B491FC01EE58FF4FC591D4916111C4
:100400000EC09FB7F8948C91E22FE0958E238C93C9
:100410002881E223E8839FBFDF91CF9108958FB7B2
:10042000F894EC91E22BEC938FBFF6CF1F93CF9310
:10043000DF93182FEB0161E00E94E501209739F46A
:1004400060E0812FDF91CF911F910C949901CF3FF4
:10045000D10511F461E0F5CFE12FF0E0E458FF4F52
:10046000E491E33031F140F4E130B1F0E230E1F019
:10047000C038D1057CF7E4CFE73029F1E83059F1F5
:10048000E430B1F780918000806280938000D09347
:100490008B00C0938A0004C084B5806884BDC7BD4A
:1004A000DF91CF911F91089584B5806284BDC8BD4E
:1004B000F7CF80918000806880938000D09389007E
:1004C000C0938800EDCF8091B00080688093B00029
:1004D000C093B300E5CF8091B00080628093B000FC
:1004E000C093B400DDCF8F929F92AF92BF920F93D3
:1004F0001F93CF93DF93CDB7DEB7A1970FB6F894D4
:10050000DEBF0FBECDBF19A2423008F44AE08E0113
:100510000F5D1F4F842E912CB12CA12CA5019401AD
:100520000E947006E62FB901CA01EA3044F5E05D89
:10053000D801EE938D01232B242B252B79F790E006
:1005400080E0109769F0FD0101900020E9F73197F4
:10055000AF014A1B5B0BBD0183E291E00E948C005E
:10056000A1960FB6F894DEBF0FBECDBFDF91CF913D
:100570001F910F91BF90AF909F908F900895E95C6D
:10058000D7CF1F920F920FB60F9211242F933F9344
:100590004F935F936F937F938F939F93AF93BF938B
:1005A000EF93FF9383E291E00E940A01FF91EF91A4
:1005B000BF91AF919F918F917F916F915F914F917B
:1005C0003F912F910F900FBE0F901F9018951F9283
:1005D0000F920FB60F9211242F938F939F93EF9347
:1005E000FF93E0913301F09134018081E091390172
:1005F000F0913A0182FD1BC0908180913C018F5F98
:100600008F7320913D01821741F0E0913C01F0E0B1
:10061000ED5DFE4F958F80933C01FF91EF919F918F
:100620008F912F910F900FBE0F901F901895808182
:10063000F4CF1F920F920FB60F9211242F933F9376
:100640008F939F93AF93BF9380911B0190911C0157
:10065000A0911D01B0911E0130911A0123E0230FDA
:100660002D3758F50196A11DB11D20931A018093D5
:100670001B0190931C01A0931D01B0931E0180915A
:10068000160190911701A0911801B09119010196DE
:10069000A11DB11D8093160190931701A09318011D
:1006A000B0931901BF91AF919F918F913F912F917D
:1006B0000F900FBE0F901F90189526E8230F0296FB
:1006C000A11DB11DD2CFCF92DF92EF92FF920F9377
:1006D0001F93E82FF92F05C0015011092109310995
:1006E00061F1908196239417B9F305C00150110967
:1006F0002109310911F1908196239413F7CFC12C70
:10070000D12CE12CF12C0AC08FEFC81AD80AE80AC4
:10071000F80A0C151D052E053F0579F0808186230A
:10072000841791F36C2D7D2D8E2D9F2D1F910F9190
:10073000FF90EF90DF90CF90089560E070E080E050
:1007400090E01F910F91FF90EF90DF90CF90089570
:10075000789484B5826084BD84B5816084BD85B59C
:10076000826085BD85B5816085BD80916E008160A8
:1007700080936E001092810080918100826080934E
:100780008100809181008160809381008091800050
:100790008160809380008091B10084608093B1007B
:1007A0008091B00081608093B00080917A00846075
:1007B00080937A0080917A00826080937A008091A1
:1007C0007A00816080937A0080917A0080688093BB
:1007D0007A001092C10061E08CE00E94E50160E0C7
:1007E0008DE00E94E50161E083E00E94E50161E0A7
:1007F00085E00E94E50161E086E00E94E501E0916C
:100800003301F091340182E08083E0912F01F09177
:1008100030011082E0913101F09132018FEC808340
:1008200010923B01E0913701F091380186E080831E
:10083000E0913501F0913601808180618083E09103
:100840003501F0913601808188608083E091350127
:10085000F0913601808180688083E0913501F091CC
:10086000360180818F7D808360E08EE00E94E5010B
:10087000CBE9DFE020E4922E3BEBE32E30E0F32ED9
:1008800047EAC42E40E0D42E50E0A52E50E0B52E0D
:1008900061E08CE00E949901CE010197F1F760E0E0
:1008A0008CE00E94990190927C0080917A00806493
:1008B00080937A0080917A0086FDFCCF8091780049
:1008C00060917900762F682F072E000C880B990B0A
:1008D0000E94770528E030E240E85DE30E94DB05F6
:1008E0000E943F057093220160932101F7016491FA
:1008F000F6018491E82FF0E0EE0FFF1FE057FF4F65
:100900008591949100E412E42FE030E0462F0E949C
:100910006303611571058105910529F06F5F7F4FB4
:100920008F4F9F4F9F70072E000C880B990B0E94D2
:10093000770526E933E44BE05DE30E94DB0520E028
:1009400030E040E05FE30E94DB050E943F057093CA
:10095000200160931F012B01770F660877084AE09A
:10096000C301B20177FE0DC06DE283E291E00E9407
:100970002C0166277727CB01641975098609970929
:100980004AE00E94730242E050E062E171E083E2DB
:1009900091E00E948C0080911F01909120018B308A
:1009A0009105ECF470E060E083E00E941602609133
:1009B00021017091220185E00E94160270E060E042
:1009C00086E00E941602A114B10409F461CF0E94CE
:1009D000F600882309F45CCF0E94000059CF9C01E7
:1009E0002B5031092A30310580F46090210170903C
:1009F0002201B30183E00E941602B30177FF02C017
:100A00006F5F7F4F75956795D6CF45978897D8F6D6
:100A1000609121017091220183E00E94160270E032
:100A200060E0C9CFE3E2F1E01382128288EE93E046
:100A3000A0E0B0E084839583A683B78384E091E04F
:100A40009183808385EC90E09587848784EC90E0A7
:100A50009787868780EC90E0918B808B81EC90E08B
:100A6000938B828B82EC90E0958B848B86EC90E06C
:100A7000978B868B118E128E138E148E08950E9482
:100A800046056894B1110C94D50508950E94BA05E5
:100A900088F09F5798F0B92F9927B751B0F0E1F03F
:100AA000660F771F881F991F1AF0BA95C9F714C0EF
:100AB000B13091F00E94D405B1E008950C94D405B2
:100AC000672F782F8827B85F39F0B93FCCF3869528
:100AD00077956795B395D9F73EF490958095709585
:100AE00061957F4F8F4F9F4F0895E89409C097FB02
:100AF0003EF490958095709561957F4F8F4F9F4FF5
:100B00009923A9F0F92F96E9BB279395F695879538
:100B100077956795B795F111F8CFFAF4BB0F11F4FB
:100B200060FF1BC06F5F7F4F8F4F9F4F16C08823A2
:100B300011F096E911C0772321F09EE8872F762FD8
:100B400005C0662371F096E8862F70E060E02AF019
:100B50009A95660F771F881FDAF7880F9695879505
:100B600097F9089557FD9058440F551F59F05F3F6E
:100B700071F04795880F97FB991F61F09F3F79F0BF
:100B800087950895121613061406551FF2CF469541
:100B9000F1DF08C0161617061806991FF1CF8695C3
:100BA0007105610508940895E894BB2766277727A7
:100BB000CB0197F908950E94EE050C945F060E9400
:100BC000510638F00E94580620F0952311F00C943D
:100BD00048060C944E0611240C94D5050E94B205CB
:100BE00070F3959FC1F3950F50E0551F629FF00180
:100BF000729FBB27F00DB11D639FAA27F00DB11D99
:100C0000AA1F649F6627B00DA11D661F829F222721
:100C1000B00DA11D621F739FB00DA11D621F839FA8
:100C2000A00D611D221F749F3327A00D611D231F7E
:100C3000849F600D211D822F762F6A2F11249F57CC
:100C400050409AF0F1F088234AF0EE0FFF1FBB1FCF
:100C5000661F771F881F91505040A9F79E3F51058E
:100C600080F00C9448060C94D5055F3FE4F3983E61
:100C7000D4F3869577956795B795F795E7959F5F38
:100C8000C1F7FE2B880F911D9695879597F90895CA
:100C900097F99F6780E870E060E008959FEF80EC2F
:100CA000089500240A9416161706180609060895D2
:100CB00000240A9412161306140605060895092E38
:100CC0000394000C11F4882352F0BB0F40F4BF2BA7
:100CD00011F460FF04C06F5F7F4F8F4F9F4F0895E7
:100CE000A1E21A2EAA1BBB1BFD010DC0AA1FBB1F30
:100CF000EE1FFF1FA217B307E407F50720F0A21BA2
:100D0000B30BE40BF50B661F771F881F991F1A940E
:100D100069F760957095809590959B01AC01BD0138
:100D2000CF010895EE0FFF1F0590F491E02D099477
:040D3000F894FFCF65
:100D3400000000002C018C00B9007901EA00C80011
:060D4400DC000D0A0000B6
:107E0000112484B714BE81FFF0D085E080938100F7
:107E100082E08093C00088E18093C10086E0809377
:107E2000C20080E18093C4008EE0C9D0259A86E02C
:107E300020E33CEF91E0309385002093840096BBD3
:107E4000B09BFECF1D9AA8958150A9F7CC24DD24C4
:107E500088248394B5E0AB2EA1E19A2EF3E0BF2EE7
:107E6000A2D0813461F49FD0082FAFD0023811F036
:107E7000013811F484E001C083E08DD089C08234E0
:107E800011F484E103C0853419F485E0A6D080C0E4
:107E9000853579F488D0E82EFF2485D0082F10E0AE
:107EA000102F00270E291F29000F111F8ED06801E7
:107EB0006FC0863521F484E090D080E0DECF843638
:107EC00009F040C070D06FD0082F6DD080E0C81688
:107ED00080E7D80618F4F601B7BEE895C0E0D1E017
:107EE00062D089930C17E1F7F0E0CF16F0E7DF06D8
:107EF00018F0F601B7BEE89568D007B600FCFDCFD4
:107F0000A601A0E0B1E02C9130E011968C91119780
:107F100090E0982F8827822B932B1296FA010C0160
:107F200087BEE89511244E5F5F4FF1E0A038BF0790
:107F300051F7F601A7BEE89507B600FCFDCF97BE46
:107F4000E89526C08437B1F42ED02DD0F82E2BD052
:107F50003CD0F601EF2C8F010F5F1F4F84911BD097
:107F6000EA94F801C1F70894C11CD11CFA94CF0C13
:107F7000D11C0EC0853739F428D08EE10CD085E9AC
:107F80000AD08FE07ACF813511F488E018D01DD067
:107F900080E101D065CF982F8091C00085FFFCCF94
:107FA0009093C60008958091C00087FFFCCF809118
:107FB000C00084FD01C0A8958091C6000895E0E648
:107FC000F0E098E1908380830895EDDF803219F02E
:107FD00088E0F5DFFFCF84E1DECF1F93182FE3DFCA
:107FE0001150E9F7F2DF1F91089580E0E8DFEE27F6
:047FF000FF270994CA
:027FFE00040479
:0400000300007E007B
:00000001FF
